:100000000C9410010C9438010C9438010C94720477
:100010000C9472040C9472040C9438010C94380102
:100020000C9438010C9438010C9438010C9438016C
:100030000C9438010C9438010C9438010C9438015C
:100040000C94ED080C9438010C9440040C941A04A0
:100050000C9438010C9438010C9438010C9438013C
:100060000C9438010C943801BE06E205F705100621
:100070002C0648065D0672068706A006084AD73B8E
:100080003BCE016E84BCBFFDC12F3D6C74319ABD67
:1000900056833DDA3D00C77F11BED9E4BB4C3E918B
:1000A0006BAAAABE000000803F05A84CCDB2D44E7A
:1000B000B93836A9020C50B9918688083CA6AAAA7C
:1000C0002ABE000000803F0000407A10F35A00A0D2
:1000D000724E18090010A5D4E80000E87648170011
:1000E00000E40B54020000CA9A3B000000E1F50551
:1000F000000080969800000040420F000000A0869B
:1001000001000000102700000000E80300000000CC
:100110006400000000000A00000000000100000070
:1001200000002C76D888DC674F0823DFC1DFAE598A
:10013000E1B1B796E5E3E453C63AE651997696E81D
:10014000E6C28426EB898C9B62ED407C6FFCEFBCA1
:100150009C9F40F2BAA56FA5F490055A2AF75C93CC
:100160006B6CF9676DC11BFCE0E40D47FEF520E602
:10017000B500D0ED902E0300943577050080841EE5
:10018000080000204E0A000000C80C333333330F40
:10019000986E12831141EF8D2114893BE65516CFDD
:1001A000FEE6DB18D1844B381BF77C1D901DA4BBE9
:1001B000E424203284725E228100C9F124ECA1E59E
:1001C0003D2700000000240027002A00000000084E
:1001D000000201000003040700000000000000000E
:1001E0000000000023002600290000000000250078
:1001F00028002B0004040404040404040202020284
:1002000002020303030303030102040810204080D9
:100210000102040810200102040810203A12890C7F
:1002200011241FBECFEFD8E0DEBFCDBF25E0AEE585
:10023000B3E001C01D92A232B207E1F713E0A0E0E3
:10024000B1E0E2E2F9E302C005900D92AE35B107EC
:10025000D9F711E0CFE0D1E004C02197FE010E9460
:100260006E1ACE30D107C9F70E94A50C0C94841CDD
:100270000C940000CF92DF92EF92FF920F931F93A6
:10028000CF93DF936C017A018B01C0E0D0E0CE15F3
:10029000DF0581F0D8016D918D01D601ED91FC91C2
:1002A0000190F081E02DC6010995892B11F021966E
:1002B000EECF7E01C701DF91CF911F910F91FF908B
:1002C000EF90DF90CF900895FC01538D448D252F42
:1002D00030E0842F90E0821B930B541710F0CF96E0
:1002E000089501970895FC01918D828D981761F012
:1002F000828DDF01A80FB11D5D968C91928D9F5F5D
:100300009F73928F90E008958FEF9FEF0895FC0107
:10031000918D828D981731F0828DE80FF11D858DBA
:1003200090E008958FEF9FEF0895FC01918D228D4D
:10033000892F90E0805C9F4F821B91098F739927D2
:10034000089587ED93E00E94950121E0892B09F43F
:1003500020E0822F0895FC01848DDF01A80FB11DDC
:10036000A35ABF4F2C91848D90E001968F739927EB
:10037000848FA689B7892C93A089B1898C918370C9
:1003800080648C93938D848D981306C00288F389C2
:10039000E02D80818F7D80830895EF92FF920F93EF
:1003A0001F93CF93DF93EC0181E0888F9B8D8C8D21
:1003B000981305C0E889F989808185FD26C0F62E4D
:1003C0000B8D10E00F5F1F4F0F731127E02E8C8DE8
:1003D000E8120CC00FB607FCFACFE889F9898081D2
:1003E00085FFF5CFCE010E94AB01F1CF8B8DFE01D1
:1003F000E80FF11DE35AFF4FF0829FB7F8940B8F7F
:10040000EA89FB89808180620AC09FB7F894EE89EF
:10041000FF896083E889F9898081837080648083A3
:100420009FBF81E090E0DF91CF911F910F91FF90EE
:10043000EF900895CF93DF93EC01888D8823C9F066
:10044000EA89FB89808185FD05C0A889B9898C91DD
:1004500086FD0FC00FB607FCF5CF808185FFF2CF78
:10046000A889B9898C9185FFEDCFCE010E94AB019F
:10047000E7CFDF91CF91089580E090E0892B29F0BC
:100480000E94A10181110C94000008952091A00305
:100490003091A1032817390771F490919E03809140
:1004A0009F03981741F0E0919E03F0E0E25AFC4F61
:1004B000808190E008958FEF9FEF089508951F9336
:1004C000CF93DF93DC015C968D919C915D970097B3
:1004D00039F421E030E013963C932E9312973BC001
:1004E0005196ED91FC91529750962C915097322F46
:1004F00030951FB75E964C915E97742F727041FDD8
:100500006095F8944081772311F0422B01C043237A
:100510004083EC012197F1F748E0508160FF02C071
:10052000522B01C053235083EC012197F1F76695BC
:10053000415099F78081772319F08323808302C08B
:10054000282B20831FBF5C968D919C915D9701970E
:10055000F1F781E090E0DF91CF911F910895209114
:10056000A0033091A1032817390771F480919F03EC
:1005700020919E0390E0805C9F4F821B910960E474
:1005800070E00E945A1A089580E090E0089520914A
:10059000A0033091A10328173907B9F490919E0365
:1005A00080919F03981789F0E0919E03F0E0E25A52
:1005B000FC4F808120919E0330E02F5F3F4F2F73CF
:1005C000332720939E0390E008958FEF9FEF0895C7
:1005D000089580E090E008956115710579F0FB01C0
:1005E00001900020E9F73197AF01461B570BDC0162
:1005F000ED91FC910280F381E02D099480E090E080
:1006000008950F931F93CF93DF93EC018881998115
:10061000009729F02A813B812617370788F48B0140
:100620006F5F7F4F0E94A91B009761F099838883B9
:100630001B830A832C813D81232B11F4FC01108242
:1006400081E001C080E0DF91CF911F910F9108956B
:10065000CF93DF93EC0160E08E810E944A0A61E053
:100660008E810E944A0A60E08E810E944A0A8BE8CD
:1006700091E00197F1F7DF91CF910895EF92FF920A
:100680000F931F93CF93DF936115710511F480E0F1
:100690001CC041155105C1F07B01EC018C819D818D
:1006A0008A01080F191FB801CE010E940103882397
:1006B00071F3288139818C819D81B701820F931F4D
:1006C0000E947D1C1D830C8381E0DF91CF911F91DF
:1006D0000F91FF90EF900895CF93DF93EC01888105
:1006E0009981009711F00E94201B198218821D82A7
:1006F0001C821B821A82DF91CF910895CF93DF93E2
:10070000EC016115710561F0FB0101900020E9F732
:100710003197AF01461B570B0E943E03811103C066
:10072000CE010E946C03CE01DF91CF910895EF922C
:10073000FF920F931F93CF93DF93EC017B018A010C
:10074000BA010E940103811104C0CE010E946C0312
:1007500007C01D830C83B701888199810E947D1C8D
:10076000CE01DF91CF911F910F91FF90EF900895EF
:10077000CF93DF93EC016115710559F0FB010190F6
:100780000020E9F73197AF01461B570B0E949703F2
:1007900002C00E946C03CE01DF91CF910895FC014D
:1007A000808191810C94201BFC01118210821382A4
:1007B0001282158214826115710551F0FB010190BE
:1007C0000020E9F73197AF01461B570B0C949703B4
:1007D00008950F931F93CF93DF93EC010E94EC02D7
:1007E0008C0166E371E0CE010E94EC02800F911F44
:1007F000DF91CF911F910F9108950F931F93CF9386
:10080000DF93EC01FB014481558160817181E881B6
:10081000F9810280F381E02D09958C0166E371E096
:10082000CE010E94EC02800F911FDF91CF911F91AA
:100830000F9108951F920F920FB60F9211242F93CC
:100840003F934F935F936F937F938F939F93AF9358
:10085000BF93EF93FF9387ED93E00E94AB01FF916D
:10086000EF91BF91AF919F918F917F916F915F9128
:100870004F913F912F910F900FBE0F901F901895A1
:100880001F920F920FB60F9211242F938F939F9365
:10089000EF93FF93E091E703F091E8038081E0910B
:1008A000ED03F091EE0382FD12C090818091F00380
:1008B0008F5F8F732091F103821751F0E091F00365
:1008C000F0E0E952FC4F958F8093F00301C08081E6
:1008D000FF91EF919F918F912F910F900FBE0F90ED
:1008E0001F9018951F920F920FB60F9211242F93FD
:1008F0003F934F935F936F937F938F939F93AF93A8
:10090000BF93EF93FF93E091A003F091A103309781
:1009100009F451C0968DA685B785858591FF04C0E1
:100920009C91892329F447C09C91892309F043C0F5
:10093000A389B4899C918589809589238C93868924
:1009400097890197F1F7608D718DA685B7855585DB
:1009500038E020E0CB010197F1F7822F90E09595E8
:100960008795282F4C91452309F02068315091F745
:10097000868D81FD209580919F0390E001968F7375
:10098000992730919E03381749F0A0919F03B0E05A
:10099000A25ABC4F2C9380939F0303C0868D816025
:1009A000868F828D938D0197F1F7A389B4899C91ED
:1009B0008589892B8C93FF91EF91BF91AF919F9186
:1009C0008F917F916F915F914F913F912F910F90F8
:1009D0000FBE0F901F901895CF92DF92EF92FF926B
:1009E0000F931F93CF93DF936C017C0187E0E80E98
:1009F000F11CC0E0D0E0062F10E0B8010C2E02C0C0
:100A0000759567950A94E2F76170F70181917F010E
:100A10000E944A0A2196C430D10579F7C601DF91B8
:100A2000CF911F910F91FF90EF90DF90CF900C949A
:100A30002803CF92DF92EF92FF920F931F93CF93F1
:100A4000DF93EC01F62E642F8C810E944A0A8D817F
:100A50008F3F19F060E00E944A0A8F850F2D10E049
:100A600084FF25C06E0187E0C80ED11CE12CF12C5B
:100A7000B8010E2C02C0759567950A94E2F7617073
:100A8000F60181916F010E944A0AFFEFEF1AFF0AF7
:100A900088E0E816F10461F7CE01DF91CF911F9154
:100AA0000F91FF90EF90DF90CF900C942803B80146
:100AB00084E0759567958A95E1F7CE010E94EC0474
:100AC0006F2DCE01DF91CF911F910F91FF90EF908D
:100AD000DF90CF900C94EC0441E00E94190581E076
:100AE00090E0089583E480937C0080917A00806494
:100AF00080937A0080917A0086FDFCCF8091780007
:100B00002091790090E0922B6AE070E00E945A1ADE
:100B1000653671052CF4CB01770FAA0BBB0B04C013
:100B200084E690E0A0E0B0E08093C3039093C40318
:100B3000A093C503B093C60308956091A20370917A
:100B4000A3038091A4039091A503681B790B89E00E
:100B50000E94AB0B6091A2037091A3038091A60346
:100B60009091A703681B790B86E00E94AB0B609104
:100B7000A2037091A3038091A8039091A903681B1D
:100B8000790B85E00E94AB0B6091A2037091A303E7
:100B90008091AA039091AB03681B790B83E00C94BE
:100BA000AB0BCF93C82F082E000C990BAA0BBB0BD5
:100BB000FC01F097EA30F10508F0F0C0EC5CFF4F63
:100BC0000C946E1A84E690E09093AB038093AA0392
:100BD0009093A5038093A4031092A9031092A803F5
:100BE0001092A7031092A60369E371E014C084E693
:100BF00090E09093A9038093A8039093A703809318
:100C0000A6031092AB031092AA031092A5031092B0
:100C1000A40367E471E087ED93E00E94E903BEC09E
:100C20001092AB031092AA031092A9031092A8038A
:100C30001092A7031092A6031092A5031092A4038A
:100C40008091A2039091A303C2969093A3038093F3
:100C5000A20366E571E0DFCF1092AB031092AA0306
:100C60001092A9031092A8031092A7031092A60352
:100C70001092A5031092A4038091A2039091A30364
:100C8000C2979093A3038093A20362E671E0C3CF5F
:100C900084E690E09093A7038093A6039093A50326
:100CA0008093A4031092AB031092AA031092A9039D
:100CB0001092A80360E771E0AECF84E690E09093D5
:100CC000AB038093AA039093A9038093A803109287
:100CD000A7031092A6031092A5031092A40361E843
:100CE00071E099CF1092AB031092AA031092A70360
:100CF0001092A60384E690E09093A9038093A80342
:100D00009093A5038093A40364E971E014C010924A
:100D1000A9031092A8031092A5031092A40384E6DD
:100D200090E09093AB038093AA039093A7038093E2
:100D3000A60366EA71E087ED93E00E94EC022EC004
:100D40008091A2039091A303C2979093A3038093F1
:100D5000A2031092AB031092AA031092A90310925F
:100D6000A8031092A7031092A6031092A503109255
:100D7000A4030E949D0569EB71E04DCF1092AB0377
:100D80001092AA031092A9031092A8031092A7032D
:100D90001092A6031092A5031092A4030E949D0531
:100DA0001092AB031092AA031092A9031092A80309
:100DB0001092A7031092A6031092A5031092A40309
:100DC000C753C23048F064EF71E080E090E00E94C9
:100DD0000A0CCF910C949D05CF910895CF93DF938A
:100DE000CDB7DEB72C970FB6F894DEBF0FBECDBFE0
:100DF00069EB71E087ED93E00E94E90380E30E94D4
:100E0000D10560ED77E080E090E00E940A0C0E943E
:100E1000790A86309105D4F12091A2033091A30381
:100E20002A5031093093A3032093A203BC01CE01C1
:100E300001960E94900918861F821A8619861C86C0
:100E40001B8669817A816115710531F04D815E8162
:100E5000CE0107960E9497036CEC71E0CE010796D5
:100E60000E947E03BC0187ED93E00E94FD03CE014A
:100E700007960E94CF03CE0101960E94CF030E94E5
:100E80009D0564EF71E080E090E0BFCF60E084E01A
:100E90000E944A0A6FED71E087ED93E00E94E9033A
:100EA00061EF71E08CE894E00E94E9034091B603A1
:100EB0005091B7036091B8037091B903CE010796C2
:100EC0000E94BC0967E072E0CE0101960E94D40343
:100ED000BE01695F7F4FCE0101960E947D09BC0172
:100EE0008CE894E00E94FD03CE0101960E94CF039E
:100EF000CE0107960E94CF034091BA035091BB03E5
:100F00006091BC037091BD03CE0107960E94BC099D
:100F100068E172E0CE0101960E94D403BE01695FD0
:100F20007F4FCE0101960E947D09BC018CE894E0C0
:100F30000E94FD03CE0101960E94CF03CE010796C9
:100F40000E94CF0381E08093C2031092BE031092EF
:100F5000BF031092C0031092C1031092A30310921A
:100F6000A2032C960FB6F894DEBF0FBECDBFDF9163
:100F7000CF9108950F931F93CF93DF93CDB7DEB733
:100F80002C970FB6F894DEBF0FBECDBF8C0187E360
:100F90000E94D105B801CE0107960E94900966E132
:100FA00072E0CE0101960E94D403BE01695F7F4FBB
:100FB000CE0101960E947D0969E272E00E947E03E3
:100FC000BC0187ED93E00E94FD03CE0101960E94D3
:100FD000CF03CE0107960E94CF038AE0809FB00125
:100FE000819F700D1124072E000C880B990B0E9415
:100FF0000A0C80E30E94D1058091AC039091AD036F
:10100000800F911F68E671E00E945A1A9093AD0319
:101010008093AC032C960FB6F894DEBF0FBECDBF05
:10102000DF91CF911F910F910895CF92DF92EF92B0
:10103000FF920F931F93CF93DF93CDB7DEB72C971B
:101040000FB6F894DEBF0FBECDBF0091AC03109178
:10105000AD032091B6033091B7034091B80350918E
:10106000B9036091B2037091B3038091B40390917E
:10107000B5030E94E0176B017C012091BA03309107
:10108000BB034091BC035091BD036091AE037091CE
:10109000AF038091B0039091B1030E94E017A701C4
:1010A00096010E94601820E030E044E353E40E947F
:1010B000EB162BED3FE049E450E40E94C4180E9477
:1010C00036196B017C01CB01801B910B88599E4F17
:1010D000E8E6F1E0BF010E945A1A9C01C8018C1990
:1010E0009D0988599E4FBF010E945A1A8C012817EA
:1010F000390724F4C9010E94BA0735C088E30E9469
:10110000D105B801CE0101960E94900966E172E016
:10111000CE0107960E94D403BE016F5F7F4FCE01C0
:1011200007960E947D0969E272E00E947E03BC017D
:1011300087ED93E00E94FD03CE0107960E94CF0346
:10114000CE0101960E94CF038AE0809FB001819F6B
:10115000700D1124072E000C880B990B0E940A0CAD
:1011600080E30E94D105D092AD03C092AC032C96CF
:101170000FB6F894DEBF0FBECDBFDF91CF911F91A8
:101180000F91FF90EF90DF90CF9008950E946F1C19
:101190003FB7F8948091CF039091D003A091D103F1
:1011A000B091D20326B5A89B05C02F3F19F0019638
:1011B000A11DB11D3FBFBA2FA92F982F8827820FDD
:1011C000911DA11DB11DBC01CD0142E0660F771F2D
:1011D000881F991F4A95D1F708951F920F920FB655
:1011E0000F9211242F933F938F939F93AF93BF93AD
:1011F0008091D3039091D403A091D503B091D603ED
:101200003091CE0323E0230F2D3720F40196A11D4A
:10121000B11D05C026E8230F0296A11DB11D209324
:10122000CE038093D3039093D403A093D503B093BC
:10123000D6038091CF039091D003A091D103B091B8
:10124000D2030196A11DB11D8093CF039093D003CB
:10125000A093D103B093D203BF91AF919F918F918F
:101260003F912F910F900FBE0F901F9018952FB7A1
:10127000F8948091D3039091D403A091D503B091B9
:10128000D6032FBF8093DF039093E003A093E10385
:10129000B093E20387ED93E00E94730197FF26C0AD
:1012A0002FB7F8948091D3039091D403A091D503E4
:1012B000B091D6032FBF4091DF035091E0036091BE
:1012C000E1037091E203841B950BA60BB70B4091D1
:1012D000DB035091DC036091DD037091DE03841722
:1012E0009507A607B707B0F28FEF9FEF089540E08C
:1012F000682F84E794E00C941905CF93DF93EC01F9
:10130000FB0144815581608171810E943E038111FE
:1013100003C0CE010E946C03CE01DF91CF910895EE
:101320000F931F93CF93DF93CDB7DEB762970FB6BE
:10133000F894DEBF0FBECDBF8C01CB01F801118246
:10134000108213821282158214824AE0BE016F5FFE
:101350007F4F0E94D813BE016F5F7F4FC8010E946C
:10136000B80362960FB6F894DEBF0FBECDBFDF9113
:10137000CF911F910F910895EF92FF920F931F93BA
:10138000CF93DF93CDB7DEB7A1970FB6F894DEBF4A
:101390000FBECDBF7C01CB01BA01F70111821082D3
:1013A00013821282158214828E010F5F1F4F22E07A
:1013B00044E00E949113BC01C7010E94B803A196AA
:1013C0000FB6F894DEBF0FBECDBFDF91CF911F9156
:1013D0000F91FF90EF900895643008F063E09091D2
:1013E0008704691710F06FEF690FE62FF0E0EC58F3
:1013F000FB4F9489890F80680C9477090F931F9392
:10140000CF93DF9300D0CDB7DEB78C0168E371E0F6
:101410000E94D4030E94370997FD0BC089831A826A
:1014200041E050E0BE016F5F7F4FC8010E943E0364
:10143000F1CFC8010F900F90DF91CF911F910F91C5
:101440000895833081F028F4813099F08230A1F042
:1014500008958730A9F08830B9F08430D1F48091B4
:1014600080008F7D03C0809180008F778093800003
:10147000089584B58F7702C084B58F7D84BD0895AB
:101480008091B0008F7703C08091B0008F7D8093F2
:10149000B00008951F93CF93DF93282F30E0F90118
:1014A000E453FE4F8491F901E85FFD4FD491F901B7
:1014B000EC50FE4FC491CC23C1F0162F81110E9435
:1014C000210AEC2FF0E0EE0FFF1FE651FE4FA59131
:1014D000B4919FB7F894111104C08C91D095D82382
:1014E00002C0EC91DE2BDC939FBFDF91CF911F9167
:1014F00008950F931F9360E08EE00E944A0A83E0F4
:1015000090E00197F1F761E08EE00E944A0A83E2E1
:1015100090E00197F1F760E08EE00E944A0AE7E16F
:10152000F2E06491E3E0F2E0E491F0E0EE0FFF1FFF
:10153000E052FE4F8591949100E412E42FE030E0F8
:10154000462F0E94440C611571058105910549F0F3
:10155000DC01CB010196A11DB11DBC01CD019F7025
:1015600003C060E070E0CB010E948C1626E933E4F2
:101570004BE05DE30E94EB1620E030E040E05FE3EB
:101580000E94EB160E943619CB011F910F9108950E
:10159000CF93DF9390E0FC01E85FFD4F2491FC01C5
:1015A000EC50FE4F8491882361F190E0880F991FE1
:1015B000FC01EE53FE4FC591D491FC01E651FE4F64
:1015C000A591B491611109C09FB7F89488812095C5
:1015D00082238883EC912E230BC0623061F49FB785
:1015E000F8948881322F309583238883EC912E2BB9
:1015F0002C939FBF06C08FB7F894E8812E2B2883C9
:101600008FBFDF91CF910895CF93DF93623028F0A1
:101610009091830498609093830460938704109260
:10162000880490E49093890480938A0490E0805C1D
:101630009F4F80938B0461E0809178040E94C80AD8
:10164000809179048F3F19F061E00E94C80A61E03F
:1016500080917A040E94C80AC4E7D4E09E0124570E
:1016600034408091830484FD03C084E090E002C094
:1016700088E090E02196281739072CF461E08E81EC
:101680000E94C80AEBCF8BE39DE00197F1F760E081
:10169000809178040E944A0A60E080917A040E9456
:1016A0004A0A809179048F3F19F060E00E944A0A4B
:1016B0008091830484FD20C063E084E794E00E946D
:1016C000EC04CBE4D6E4CE010197F1F763E084E7C4
:1016D00094E00E94EC042197F1F763E084E794E042
:1016E0000E94EC0483E592E00197F1F762E084E761
:1016F00094E00E94EC0415C080620E9477098BE49C
:1017000096E40197F1F78091830480620E94770943
:1017100083E592E00197F1F78091830480620E9453
:1017200077098091830480620E94770984E0809326
:1017300084048CE00E94770981E00E9477098BE3A2
:101740009FE10197F1F782E08093850486E0DF91C5
:10175000CF910C9477091F93CF93DF93182FEB0150
:1017600061E00E94C80A209711F460E004C0CF3FF6
:10177000D10539F461E0812FDF91CF911F910C9455
:101780004A0AE12FF0E0E453FE4FE491E330F9F030
:1017900048F4E130B9F0E230A1F584B5806284BD4F
:1017A000C8BD34C0E730E9F0E83019F1E43049F55C
:1017B00080918000806280938000D0938B00C093E2
:1017C0008A0024C084B5806884BDC7BD1FC08091D5
:1017D0008000806880938000D0938900C093880047
:1017E00015C08091B00080688093B000C093B300B2
:1017F0000DC08091B00080628093B000C093B400AF
:1018000005C0C038D1050CF0B5CFAFCFDF91CF9177
:101810001F9108958F929F92AF92BF92CF92DF92C5
:10182000EF92FF926B017C010E94C8084B015C01A2
:10183000C114D104E104F104F1F00E94C808DC01F4
:10184000CB0188199909AA09BB09883E9340A105D3
:10185000B10570F321E0C21AD108E108F10888EE61
:10186000880E83E0981EA11CB11CC114D104E104B0
:10187000F10419F7DDCFFF90EF90DF90CF90BF908C
:10188000AF909F908F900895CF92DF92EF92FF924A
:101890000F931F93E82FF92F05C00150110921095B
:1018A000310961F1908196239417B9F305C0015075
:1018B00011092109310911F1908196239413F7CF71
:1018C000C12CD12CE12CF12C0AC08FEFC81AD80AF8
:1018D000E80AF80A0C151D052E053F0579F08081F0
:1018E0008623841791F36C2D7D2D8E2D9F2D1F91B6
:1018F0000F91FF90EF90DF90CF90089560E070E03F
:1019000080E090E01F910F91FF90EF90DF90CF90DB
:10191000089588E291E090938D0480938C048091E7
:10192000A0039091A1038C58944071F4E0919F041E
:10193000F091A00490818091A104809589238083F7
:101940001092A1031092A0030895CF93DF93CDB717
:10195000DEB7E4970FB6F894DEBF0FBECDBF789424
:1019600084B5826084BD84B5816084BD85B58260A4
:1019700085BD85B5816085BD80916E008160809355
:101980006E001092810080918100826080938100BE
:1019900080918100816080938100809180008160CE
:1019A000809380008091B10084608093B100809129
:1019B000B00081608093B00080917A008460809351
:1019C0007A0080917A00826080937A0080917A0018
:1019D000816080937A0080917A00806880937A0099
:1019E0001092C10061E089E00E94C80A61E086E0CF
:1019F0000E94C80A61E085E00E94C80A61E083E0B5
:101A00000E94C80A61E084E00E94C80A61E08EE09A
:101A10000E94C80A60E08FE00E94C80A60E080E18E
:101A20000E94C80A60E081E10E94C80A60E084E088
:101A30000E944A0A64E084E10E94040BE091E703FB
:101A4000F091E80382E08083E091E303F091E40306
:101A50001082E091E503F091E6038FEC8083109211
:101A6000EF03E091EB03F091EC0386E08083E091DB
:101A7000E903F091EA03808180618083E091E903CA
:101A8000F091EA03808188608083E091E903F0911E
:101A9000EA03808180688083E091E903F091EA03A2
:101AA00080818F7D80831092A7041092A6041092EB
:101AB000A5041092A4041092A3041092A2048DE92C
:101AC00091E09093A9048093A80490919804963192
:101AD00008F058C02DEB30E03093A3042093A2040B
:101AE0002BE931E03093A5042093A4042CE231E0EB
:101AF0003093A7042093A60440916800983058F0D2
:101B000031E09E3008F430E021E0822F01C0880FE0
:101B10003A95EAF701C084E0842B809368009830FE
:101B200038F09E3040F0963148F020E030E008C0B8
:101B30002DE630E005C02BE630E002C02CE630E0B8
:101B40003093A00420939F04983030F481E001C0CA
:101B5000880F9A95EAF70EC0292F30E09E3018F4CE
:101B60002850310902C02E50310981E001C0880F90
:101B70002A95EAF78093A1048091A8049091A90482
:101B80000197F1F78091A6049091A704892B49F160
:101B9000E091A003F091A10384E0EC38F80709F18B
:101BA000309739F0A389B4899C91858980958923E0
:101BB0008C938091AA048E7F8093AA0410929F0335
:101BC00010929E038CE894E09093A1038093A0036D
:101BD000E0919F04F091A00490818091A104892B51
:101BE000808361E372E08CE894E00E94E90360E0A6
:101BF00084E00E94EC096BE472E084E794E00E94C8
:101C0000E9036BE472E087ED93E00E94E90361E091
:101C100084E00E94EC0968E572E084E794E00E94A9
:101C2000E90368E572E087ED93E00E94E90362E072
:101C300081E00E94EC0965E672E084E794E00E948E
:101C4000E90365E672E087ED93E00E94E9031092F4
:101C5000AB031092AA031092A9031092A80310924A
:101C6000A7031092A6031092A5031092A40310924A
:101C7000A3031092A2038AE590E09093AD038093B2
:101C8000AC031092BE031092BF031092C0031092D7
:101C9000C1031092BA031092BB031092BC031092BE
:101CA000BD031092B6031092B7031092B8031092BE
:101CB000B90380E090E0A0E2B1E48093C703909381
:101CC000C803A093C903B093CA036BE672E087ED23
:101CD00093E00E94E903CE0101960E94FE098981EA
:101CE0009A81009719F00E94B11303C060E070E080
:101CF000CB010E948C166093B2037093B303809360
:101D0000B4039093B503CE0101960E94CF036AE01D
:101D100070E080E090E00E940A0C61E872E087EDDC
:101D200093E00E94E903CE0101960E94FE09898199
:101D30009A81009719F00E94B11303C060E070E02F
:101D4000CB010E948C166093AE037093AF03809317
:101D5000B0039093B103CE0101960E94CF036AE0D5
:101D600070E080E090E00E940A0C0E947205609191
:101D7000C3037091C4038091C5039091C6031CA254
:101D80001BA21EA21DA218A61FA22AE0AE014F5F31
:101D90005F4F0E94E313BE016F5F7F4FCE018396BA
:101DA0000E94B80368E972E0CE0101960E94D40354
:101DB000BE016D5D7F4FCE0101960E947D096EEAE6
:101DC00072E00E947E03BC0187ED93E00E94FD0358
:101DD000CE0101960E94CF03CE0183960E94CF03CD
:101DE0008091C3039091C403A091C503B091C60331
:101DF0000F97A105B105DCF461EB72E087ED93E08C
:101E00000E94E90361EB72E08CE894E00E94E90330
:101E10008091C3039091C403A091C503B091C60300
:101E20000F97A105B1051CF40E947205F1CF61E086
:101E300084E00E944A0A1092A3031092A20364EE67
:101E400072E084E794E00E94E90364EE72E087EDBB
:101E500093E00E94E90305E010E08091A2039091D5
:101E6000A3038C599F4F9093A3038093A2030E94D6
:101E70009D0520E030E040E85FE36091BE03709193
:101E8000BF038091C0039091C1030E94E11760934A
:101E9000BE037093BF038093C0039093C1030150AE
:101EA0001109D9F664EF71E080E090E00E940A0C1D
:101EB0000E94150862E080E00E94EC094091C7038F
:101EC0005091C8036091C9037091CA03CE01019675
:101ED0000E94BC094091AE035091AF036091B003E2
:101EE0007091B103CE0183960E94BC094091B20368
:101EF0005091B3036091B4037091B503CE018996FC
:101F00000E94BC096AEF72E0CE018F960E94D40352
:101F1000BE01675D7F4FCE018F960E947D096CEFF9
:101F200072E00E947E03BE016D5D7F4F0E947D09BD
:101F30006CEF72E00E947E03BE016F5F7F4F0E94D4
:101F40007D096FEF72E00E947E03BC0184E794E09C
:101F50000E94FD03CE018F960E94CF03CE01899689
:101F60000E94CF03CE0183960E94CF03CE0101963B
:101F70000E94CF032091B2033091B3034091B40388
:101F80005091B5036091B6037091B7038091B80387
:101F90009091B9030E94E0174B015C012091AE03C0
:101FA0003091AF034091B0035091B1036091BA03F7
:101FB0007091BB038091BC039091BD030E94E01718
:101FC0006B017C01A5019401C501B4010E94EB16CF
:101FD0004B015C01A7019601C701B6010E94EB16F7
:101FE0009B01AC01C501B4010E94E1170E94ED19EB
:101FF0000E9436197093CD036093CC039CED292E7B
:1020000091E0392E28E1A22E22E0B22E34E0832E78
:1020100032E0932E0E9472058091C3039091C40315
:10202000A091C503B091C6030A97A105B10524F498
:102030008091C2038111EECF1092C20363E080E071
:102040000E94EC094091BE035091BF036091C00310
:102050007091C103CE0101960E94BC094091BA0360
:102060005091BB036091BC037091BD03CE01839678
:102070000E94BC094091B6035091B7036091B80328
:102080007091B903CE0189960E94BC096AEF72E093
:10209000CE018F960E94D403BE01675D7F4FCE01B3
:1020A0008F960E947D096CEF72E00E947E03BE0154
:1020B0006D5D7F4F0E947D096CEF72E00E947E0390
:1020C000BE016F5F7F4F0E947D096FEF72E00E943B
:1020D0007E03BC0184E794E00E94FD03CE018F964D
:1020E0000E94CF03CE0189960E94CF03CE01839632
:1020F0000E94CF03CE0101960E94CF030E94790A6D
:10210000F1018491F5011491F40104910023A1F0EF
:1021100081110E94210AE02FF0E0EE0FFF1FE05234
:10212000FE4FA591B4918C91182391E080E009F4C1
:1021300090E0092F182F02C000E010E02091B203B8
:102140003091B3034091B4035091B5036091B6034D
:102150007091B7038091B8039091B9030E94E01782
:102160002B013C012091AE033091AF034091B003AD
:102170005091B1036091BA037091BB038091BC038D
:102180009091BD030E94E0176B017C01A3019201B5
:10219000C301B2010E94EB162B013C01A70196017D
:1021A000C701B6010E94EB169B01AC01C301B2014D
:1021B0000E94E1170E94ED190E9436197093CD0319
:1021C0006093CC030E9472058091C3039091C40375
:1021D000A091C503B091C6030A97A109B10905975B
:1021E000A105B10560F461E073E087ED93E00E9422
:1021F000E90361E073E08CE894E00E94E9038091D8
:10220000C3039091C403A091C503B091C6030A977C
:10221000A105B1057CF466E273E087ED93E00E94CE
:10222000E90366E273E08CE894E00E94E9030E940F
:10223000EE061DC1012B09F46FC06CE473E08CE85D
:1022400094E00E94E90383E30E94D1058AE090E0D4
:102250000E94BA0785E30E94D10520E030E040E803
:102260005FE36091BE037091BF038091C0039091C2
:10227000C1030E94E1176093BE037093BF03809374
:10228000C0039093C1036091AC037091AD03072E1E
:10229000000C880B990B0E948C162BED3FE049E453
:1022A00050E40E94EB1620E030E044E353E40E9447
:1022B000C4186B017C010E94BF189B01AC016091A6
:1022C000B6037091B7038091B8039091B9030E944F
:1022D000E1176093B6037093B7038093B8039093AC
:1022E000B903C701B6010E94DF199B01AC016091DF
:1022F000BA037091BB038091BC039091BD030E940F
:10230000E1176093BA037093BB038093BC0390936F
:10231000BD030E941508ABC08091CB0381114CC056
:10232000C090BE03D090BF03E090C003F090C10303
:102330004090C7035090C8036090C9037090CA03CF
:10234000A3019201C701B6010E94851687FF12C042
:1023500083E30E94D10520E030E040E85FE3609134
:10236000BE037091BF038091C0039091C1030E948E
:10237000E11719C0A3019201C701B6010E94D21949
:102380001816D4F484E30E94D10520E030E040E840
:102390005FE36091BE037091BF038091C003909191
:1023A000C1030E94E0176093BE037093BF03809344
:1023B000C0039093C1035BC08091CC039091CD0387
:1023C000181619060CF04AC085E30E94D1056091E9
:1023D000AC037091AD03072E000C880B990B0E9483
:1023E0008C162BED3FE049E450E40E94EB1620E010
:1023F00030E044E353E40E94C4186B017C010E9466
:10240000BF189B01AC016091B6037091B703809136
:10241000B8039091B9030E94E1176093B6037093DB
:10242000B7038093B8039093B903C701B6010E9424
:10243000DF199B01AC016091BA037091BB038091DD
:10244000BC039091BD030E94E1176093BA0370939F
:10245000BB038093BC039093BD0309C08091C2036A
:10246000811105C00E94EE06F1E0F093CB030E94BB
:102470003C02D0CD0F931F931092DA031092D90330
:1024800008EE13E020E030E00093DB031093DC0360
:102490002093DD033093DE038AE091E09093D8032C
:1024A0008093D70385EC90E09093E4038093E3035B
:1024B00084EC90E09093E6038093E50380EC90E059
:1024C0009093E8038093E70381EC90E09093EA0314
:1024D0008093E90382EC90E09093EC038093EB030C
:1024E00086EC90E09093EE038093ED031092F0035E
:1024F0001092F1031092F2031092F3034FEF5FEF8B
:10250000BA014093AB045093AC046093AD04709354
:10251000AE041092B3041092B4041092B504109259
:10252000B6048FEF99ECAAE9BBE38093BB049093C8
:10253000BC04A093BD04B093BE048093C3049093E5
:10254000C404A093C504B093C6048093CB049093B5
:10255000CC04A093CD04B093CE048093D304909385
:10256000D404A093D504B093D6048093DB04909355
:10257000DC04A093DD04B093DE044093E3045093A5
:10258000E4046093E5047093E6048FEF90E0909389
:10259000EC048093EB044093EF045093F0046093B9
:1025A000F1047093F2044093F7045093F80460939D
:1025B000F9047093FA041092FF041092000582E06F
:1025C00080931005109211051092120510921305B8
:1025D0001092140510921505109216051092170509
:1025E000109219051092180510921B0510921A05E9
:1025F0001092010510928F0410928E0400939004A3
:1026000010939104209392043093930488E291E014
:1026100090938D0480938C041092A3041092A204D2
:102620001092A5041092A4041092A7041092A6047C
:102630001092A9041092A8046091AA046E7F6D7F85
:102640006093AA046695617081E0682782E10E9428
:102650004A0A61E082E10E94C80AEAE1F2E0E491FC
:10266000E0939C04E6E0F2E0E491F0E0EE0FFF1F5F
:10267000E651FE4F8591949190939E0480939D0422
:1026800060E083E10E94C80A8091AA0481FD04C031
:1026900061E083E10E944A0A83E180939804EBE1C0
:1026A000F2E0E491E0939904E7E0F2E0E491F0E0F5
:1026B000EE0FFF1FE052FE4F8591949190939B0483
:1026C00080939A0410927704109276048CE191E042
:1026D00090937504809374048DE0809378048FEF59
:1026E000809379048CE080937A048BE080937B0460
:1026F0008AE080937C0488E080937D0487E0809367
:102700007E0410927F041092800410928104109233
:1027100082041092830461E080E11F910F910C9478
:10272000040BEF920F931F93CF93DF93E80147FDC4
:1027300002C034E001C034E1042E000C550B57FFF9
:1027400003C0519541955109E32E022F242FAE016C
:102750000E944314CE01DF91CF911F910F91EF9012
:1027600008951F93FC0199278827BC01E8941191D3
:102770001032E9F3193010F01E30C8F31B3251F05B
:102780001D3249F4689406C00E94F213610F711D56
:10279000811D911D119110531A30B0F33EF49095A4
:1027A0008095709561957F4F8F4F9F4F1F91089532
:1027B000BB274A3031F4992322F4BDE290958195EC
:1027C0009F4F0C942A14BB272A3051F4992342F4CA
:1027D000BDE290958095709561957F4F8F4F9F4F8B
:1027E0000C940814592F482F372F262F660F771F68
:1027F000881F991F660F771F881F991F620F731F0D
:10280000841F951F660F771F881F991F0895BB2788
:10281000FA01A62F6217710581059105330B30FB74
:1028200066F0AA27660F771F881F991FAA1FA21795
:1028300010F0A21B63953850A9F7A05DAA3308F0E9
:10284000A95DA19336F7B111B1931082CA010C941E
:102850007516BB27FB015527AA27880F991FAA1FAA
:10286000A41710F0A41B83955051B9F7A05DAA33AB
:1028700008F0A95DA193009779F7B111B193119276
:10288000CB010C947516A9E0B0E0E9E4F4E10C94F6
:10289000AF176A01122FB02E2BE3201720F0FF2470
:1028A000F394F00E02C02CE3F22E0F2D27E0AE01C0
:1028B0004F5F5F4F0E949D15BC014981842F897035
:1028C000813031F0E1FC06C0E0FE06C090E205C0B8
:1028D0009DE203C09BE201C090E05E2D507143FF7A
:1028E0003CC0911102C083E001C084E0811718F45C
:1028F000212F281B01C020E051110BC0F601822FAF
:1029000030E2882319F031938150FBCFC20ED11CE5
:1029100020E0992329F0D6019C93F60131966F01AE
:10292000C6010396E2FE0AC03EE4D6013C9341E4B0
:1029300011964C93119712963C9306C03EE6F60111
:10294000308341E641833283FC01322F40E233235E
:1029500009F442C041933150FACF42FF44C0911173
:1029600002C083E001C084E0811718F4212F281BE6
:1029700001C020E051110BC0F601822F30E2882304
:1029800019F031938150FBCFC20ED11C20E0992366
:1029900029F0D6019C93F60131966F01C60103968A
:1029A000E2FE0BC039E4D6013C933EE411963C9321
:1029B000119736E412963C9307C039E6F60130834E
:1029C0003EE6318336E63283FC01322F40E2332388
:1029D00019F041933150FBCFFC01E20FF11D108241
:1029E0008EEF9FEFA6C021E030E0911102C020E001
:1029F00030E0161617061CF4FB01319602C0E1E028
:102A0000F0E02E0F3F1FBB2021F0EB2DF0E03196C0
:102A100002C0E0E0F0E02E0F3F1FE12FF0E02E17A4
:102A20003F071CF4121B212F01C020E08E2D88715E
:102A300059F4F601822F30E2882319F03193815046
:102A4000FBCFC20ED11C20E0992329F0D6019C9324
:102A5000F60131966F0151110BC0F601822F90E300
:102A6000882319F091938150FBCFC20ED11C20E036
:102A70000F2D060F9A81342F307144FF03C091331C
:102A800009F40150101624F4093018F008E001C0D0
:102A900001E0AB0177FF02C040E050E0FB01E41B26
:102AA000F50BA1E0B0E0AC0FBD1FEA0FFB1F8EE2FB
:102AB000A82E4B01801A91080B2D10E0119501955D
:102AC00011094F3FBFEF5B0721F4D601AC9211967D
:102AD0006D01641775072CF08416950614F4818136
:102AE00001C080E3415051093196D60111967D0114
:102AF0004017510724F0D6018C936701E2CF641789
:102B0000750739F4963320F4953319F4311101C067
:102B100081E3F6018083F701822F90E2882319F088
:102B200091938150FBCFF701E20FF11D108280E0FD
:102B300090E02996ECE00C94CB17283008F027E0C1
:102B40003327DA01990F311D87FD916000966105E9
:102B5000710539F432602E5F3D9330E32A95E1F739
:102B600008959F3F30F080387105610509F03C5FA2
:102B70003C5F3D93913008F08068911DDF93CF93C7
:102B80001F930F93FF92EF92192F987F9695E92F3D
:102B900096959695E90FFF27EE5DFE4F992733270F
:102BA000EE24FF24A701E70105900894079428F478
:102BB000360FE71EF81E491F511D660F771F881F2D
:102BC000991F0694A1F70590079428F4E70EF81EC4
:102BD000491F561FC11D770F881F991F661F069436
:102BE000A1F70590079428F4F80E491F561FC71F38
:102BF000D11D880F991F661F771F0694A1F70590B6
:102C0000079420F4490F561FC71FD81F990F661F3E
:102C1000771F881F0694A9F784911095177041F0CB
:102C2000D695C79557954795F794E7941A95C1F7A8
:102C3000E8ECF0E0689415901591359165919591C7
:102C400005907FE27395E118F10A430B560BC90B0F
:102C5000D009C0F7E10CF11E431F561FC91FD01D3C
:102C60007EF4703311F48A95E6CFE894015030F089
:102C7000080F0AF40027021708F4202F2395022FCB
:102C80007A3328F079E37D932A95E9F710C07D9394
:102C90002A9589F606949795679537951795179411
:102CA000E118F10A430B560BC90BD00998F0239594
:102CB0007E9173957A3308F070E37C932013B8F714
:102CC0007E9170617D9330F0839571E37D9370E325
:102CD0002A95E1F71124EF90FF900F911F91CF916A
:102CE000DF91992787FD90950895DC01FC01672FFE
:102CF00071917723E1F7329704C07C916D937083D3
:102D00006291AE17BF07C8F308950E94C71608F472
:102D100081E00895E89409C097FB3EF49095809572
:102D2000709561957F4F8F4F9F4F9923A9F0F92F91
:102D300096E9BB279395F695879577956795B7950F
:102D4000F111F8CFFAF4BB0F11F460FF1BC06F5FF5
:102D50007F4F8F4F9F4F16C0882311F096E911C007
:102D6000772321F09EE8872F762F05C0662371F028
:102D700096E8862F70E060E02AF09A95660F771F3C
:102D8000881FDAF7880F9695879597F90895990F18
:102D90000008550FAA0BE0E8FEEF16161706E80725
:102DA000F907C0F012161306E407F50798F0621B46
:102DB000730B840B950B39F40A2661F0232B242B1B
:102DC000252B21F408950A2609F4A140A6958FEF3A
:102DD000811D811D08950E94FE160C946F170E949C
:102DE000611738F00E94681720F0952311F00C94B9
:102DF00058170C945E1711240C94A3170E94801787
:102E000070F3959FC1F3950F50E0551F629FF0013D
:102E1000729FBB27F00DB11D639FAA27F00DB11D56
:102E2000AA1F649F6627B00DA11D661F829F2227DF
:102E3000B00DA11D621F739FB00DA11D621F839F66
:102E4000A00D611D221F749F3327A00D611D231F3C
:102E5000849F600D211D822F762F6A2F11249F578A
:102E600050409AF0F1F088234AF0EE0FFF1FBB1F8D
:102E7000661F771F881F91505040A9F79E3F51054C
:102E800080F00C9458170C94A3175F3FE4F3983E1E
:102E9000D4F3869577956795B795F795E7959F5FF6
:102EA000C1F7FE2B880F911D9695879597F9089588
:102EB00097F99F6780E870E060E008959FEF80ECED
:102EC000089500240A941616170618060906089590
:102ED00000240A9412161306140605060895092EF6
:102EE0000394000C11F4882352F0BB0F40F4BF2B65
:102EF00011F460FF04C06F5F7F4F8F4F9F4F0895A5
:102F000057FD9058440F551F59F05F3F71F047959A
:102F1000880F97FB991F61F09F3F79F0879508957F
:102F2000121613061406551FF2CF4695F1DF08C09E
:102F3000161617061806991FF1CF869571056105BB
:102F400008940895E894BB2766277727CB0197F963
:102F500008952F923F924F925F926F927F928F923D
:102F60009F92AF92BF92CF92DF92EF92FF920F9318
:102F70001F93CF93DF93CDB7DEB7CA1BDB0B0FB622
:102F8000F894DEBF0FBECDBF09942A8839884888DF
:102F90005F846E847D848C849B84AA84B984C88475
:102FA000DF80EE80FD800C811B81AA81B981CE0F6C
:102FB000D11D0FB6F894DEBF0FBECDBFED01089551
:102FC0005058BB27AA270E94F8170C946F170E942D
:102FD000611738F00E94681720F039F49F3F19F408
:102FE00026F40C945E170EF4E095E7FB0C9458174A
:102FF000E92F0E94801758F3BA17620773078407F6
:10300000950720F079F4A6F50C94A2170EF4E0953C
:103010000B2EBA2FA02D0B01B90190010C01CA0192
:10302000A0011124FF27591B99F0593F50F4503E3D
:1030300068F11A16F040A22F232F342F4427585F2F
:10304000F3CF469537952795A795F0405395C9F747
:103050007EF41F16BA0B620B730B840BBAF09150FF
:10306000A1F0FF0FBB1F661F771F881FC2F70EC09E
:10307000BA0F621F731F841F48F487957795679571
:10308000B795F7959E3F08F0B0CF9395880F08F05D
:103090009927EE0F9795879508950E94611760F024
:1030A00080E891E009F49EEF0E94681728F040E85C
:1030B00051E071F45EEF0CC00C945E170C94A217F3
:1030C000E92FE0780E94801740F3092E052AB1F31A
:1030D000261737074807590738F00E2E07F8E0255E
:1030E00069F0E025E0640AC0EF6307F8009407FA8E
:1030F000DB01B9019D01DC01CA01AD01EF930E9422
:10310000DB180E946F170E9490185F91552339F0C9
:103110002BED3FE049E450FD49EC0C94E117089594
:10312000DF93DD27B92FBF7740E85FE31616170658
:1031300048075B0718F4D92F0E94D7199F938F93E4
:103140007F936F930E942D1AECE7F0E00E946C19B8
:103150000E946F172F913F914F915F910E94FE1631
:10316000DD2351F09058A2EA2AED3FE049EC5FE3FD
:10317000D0785D270E94F817DF910C946F170E949A
:103180009519E3950C94BE190E94D8180C946F17EA
:103190000E94681758F00E94611740F029F45F3FC1
:1031A00029F00C94581751110C94A3170C945E1726
:1031B0000E94801768F39923B1F3552391F3951B6F
:1031C000550BBB27AA2762177307840738F09F5F48
:1031D0005F4F220F331F441FAA1FA9F335D00E2EB5
:1031E0003AF0E0E832D091505040E695001CCAF722
:1031F0002BD0FE2F29D0660F771F881FBB1F2617E5
:1032000037074807AB07B0E809F0BB0B802DBF01BB
:10321000FF2793585F4F3AF09E3F510578F00C948A
:1032200058170C94A3175F3FE4F3983ED4F38695A8
:1032300077956795B795F7959F5FC9F7880F911DAB
:103240009695879597F90895E1E0660F771F881F97
:10325000BB1F621773078407BA0720F0621B730B4A
:10326000840BBA0BEE1F88F7E09508950E943D1974
:103270006894B1110C94A31708950E94881788F0E0
:103280009F5798F0B92F9927B751B0F0E1F0660F2A
:10329000771F881F991F1AF0BA95C9F714C0B1306B
:1032A00091F00E94A217B1E008950C94A217672F25
:1032B000782F8827B85F39F0B93FCCF3869577959A
:1032C0006795B395D9F73EF4909580957095619583
:1032D0007F4F8F4F9F4F0895DF93CF931F930F938F
:1032E000FF92EF92DF927B018C01689406C0DA2E88
:1032F000EF010E94FE16FE01E894A59125913591FB
:1033000045915591A6F3EF010E94F817FE01970130
:10331000A801DA9469F7DF90EF90FF900F911F9169
:10332000CF91DF9108950C945E170E948817D8F30F
:10333000E894E0E0BB279F57F0F02AED3FE049EC2E
:1033400006C0EE0FBB0F661F771F881F28F0B23A2A
:1033500062077307840728F0B25A620B730B840B61
:10336000E3959A9572F7803830F49A95BB0F661FF3
:10337000771F881FD2F790480C94331AEF93E0FF21
:1033800007C0A2EA2AED3FE049EC5FEB0E94F81784
:103390000E946F170F90039401FC9058E9EAF0E047
:1033A0000C94461A0E94C71608F48FEF08959B01EB
:1033B000AC0160E070E080E89FE30C94C4189F9338
:1033C0000E9495190F9007FCEE5F0C94BE1919F43A
:1033D00016F40C945E170C94311A0E948817B8F3F7
:1033E0009923C9F3B6F39F57550B87FF0E943F1AE5
:1033F0000024A0E640EA900180585695979528F45D
:10340000805C660F771F881F20F026173707480754
:1034100030F4621B730B840B202931294A2BA695AB
:1034200017940794202531254A2758F7660F771FF0
:10343000881F20F026173707480730F4620B730BFC
:10344000840B200D311D411DA09581F7B901842FFA
:103450009158880F9695879508959B01AC010C941F
:10346000EB169F3F31F0915020F487957795679543
:10347000B795880F911D9695879597F90895915066
:103480005040660F771F881FD2F708959F938F9340
:103490007F936F93FF93EF939B01AC010E94EB1618
:1034A000EF91FF910E946C192F913F914F915F9185
:1034B0000C94EB1697FB072E16F4009407D077FDBB
:1034C00009D00E94741A07FC05D03EF490958195AE
:1034D0009F4F0895709561957F4F0895EE0FFF1FE0
:1034E0000590F491E02D0994AA1BBB1B51E107C084
:1034F000AA1FBB1FA617B70710F0A61BB70B881F84
:10350000991F5A95A9F780959095BC01CD01089512
:103510000F931F93CF93DF938230910510F482E0D5
:1035200090E0E0912005F091210520E030E0A0E05E
:10353000B0E0309719F14081518102811381481721
:103540005907C8F08417950769F4109731F012965F
:103550000C93129713961C9327C000932005109389
:10356000210522C02115310519F04217530718F41F
:103570009A01BD01EF01DF01F801DBCF2115310513
:10358000F9F0281B390B2430310580F48A819B81A6
:103590006115710521F0FB019383828304C0909330
:1035A000210580932005FE01329644C0FE01E20F02
:1035B000F31F8193919322503109398328833AC0B4
:1035C00020911E0530911F05232B41F4209102010B
:1035D0003091030130931F0520931E0520910001B7
:1035E000309101012115310541F42DB73EB74091CD
:1035F000040150910501241B350BE0911E05F0914B
:103600001F05E217F307A0F42E1B3F0B28173907FD
:1036100078F0AC014E5F5F4F2417350748F04E0F2E
:103620005F1F50931F0540931E058193919302C025
:10363000E0E0F0E0CF01DF91CF911F910F9108956D
:10364000CF93DF93009709F481C0FC013297138276
:103650001282A0912005B0912105109781F420815C
:103660003181820F931F20911E0530911F0528176D
:10367000390751F5F0931F05E0931E0567C0ED0172
:1036800020E030E0CE17DF0740F44A815B819E01E5
:1036900041155105F1F0EA01F5CFD383C283408192
:1036A0005181840F951FC817D90759F488819981D2
:1036B000840F951F0296918380838A819B819383D7
:1036C00082832115310529F4F0932105E09320052B
:1036D0003DC0E901FB83EA8349915991C40FD51F8D
:1036E000EC17FD0761F480819181840F951F02968C
:1036F000E90199838883828193819B838A83E0E0B7
:10370000F0E012968D919C911397009719F0FD01AE
:10371000DC01F7CF8D919C9111979D012E5F3F4F5A
:10372000820F931F20911E0530911F05281739071E
:1037300069F4309729F4109221051092200502C0F7
:1037400013821282B0931F05A0931E05DF91CF91C3
:103750000895A0E0B0E0EFEAFBE10C94AD17EC01B6
:10376000009721F4CB010E94881AB4C0FC01E60F37
:10377000F71F9C0122503109E217F30708F4A8C093
:10378000D9010D911C91119706171707B0F005305C
:10379000110508F49BC0C80104978617970708F421
:1037A00095C002501109061B170B019311936D93DD
:1037B0007C93CF010E94201B89C05B01A01AB10A33
:1037C0004C01800E911EA0912005B0912105612C25
:1037D000712CE12CF12C109709F446C08D919C912D
:1037E0001197A815B905B1F56C0142E0C40ED11CC2
:1037F000CA14DB0478F14C018A189B08640142E08A
:10380000C40ED11C1296BC9012971396AC91B5E0E1
:10381000CB16D10440F0B282A38391828082D90179
:103820006D937C9309C00E5F1F4F800F911FF901AC
:1038300091838083EB2DFA2FE114F10431F0D7014D
:103840001396FC93EE93129741C0F0932105E093F9
:1038500020053CC06816790608F43C017D011296EB
:103860000D90BC91A02DB7CF80911E0590911F05A2
:1038700088169906E1F466167706C8F4809100016F
:1038800090910101009741F48DB79EB740910401DA
:1038900050910501841B950BE817F907C8F4F093C4
:1038A0001F05E0931E05F901718360830FC0CB01F2
:1038B0000E94881A7C01009759F0A801BE010E945D
:1038C000741CCE010E94201BC70104C0CE0102C09F
:1038D00080E090E0CDB7DEB7EEE00C94C91781E050
:1038E00090E0F8940C94841CFB01DC0102C0019070
:1038F0000D9241505040D8F70895FB01DC01019032
:103900000D920020E1F7089511E0CFE0D1E004C06E
:10391000FE010E946E1A2196C031D107C9F7F894B2
:02392000FFCFD7
:1039220000002205800000000000CD013A01640180
:103932001A02950173018701000000006C053A012B
:10394200E902E802000000005F023A01E9025E02B9
:10395200AF02C70246020D0A003C2D2D204D6F76A4
:1039620065204C656674002D2D3E204D6F766520D6
:103972005269676874005E2D2D204D6F7665205563
:103982007000762D2D204D6F766520446F776E0086
:103992003E3E3E204D6F766520466F7277617264BF
:1039A200003C3C3C20204D6F7665204261636B7782
:1039B200617264003C2D302020526F746174652066
:1039C2004C65667420004F2D3E2020526F74617446
:1039D200652052696768742000496E697469617470
:1039E200652053656C662D4C616E6400206D6574B4
:1039F20065722066726F6D2067726F756E64005318
:103A02007563636566756C6C79204C616E64656480
:103A120000537563636566756C6C79204C616E64E6
:103A22006564206174200020202020204C6174698C
:103A3200747564653A20200020202020204C6F6E8F
:103A42006769747564653A2000206465677265650C
:103A52000044726F6E65205374617475733A204727
:103A6200534D204D6573736167650044726F6E65D7
:103A720020537461747573003D3D3D3D3D3D3D3DB8
:103A82003D3D3D3D00537461727400456E74657234
:103A9200206C617469747564652076616C75653A31
:103AA20000456E746572206C6F6E6769747564652B
:103AB2002076616C75653A005468652062617474A1
:103AC200657279206C6576656C2069732000252EFD
:103AD20000556E61626C6520746F2054616B656F76
:103AE20066662064756520746F2043726974696329
:103AF200616C6C79204C6F772042617474657279C5
:103B020021212100496E6974696174652053656CD5
:103B1200662D54616B656F66660028002C200029B3
:103B22000042617474657279204C6F7721212120E3
:103B3200496E6974696174652053656C662D4C61C8
:103B42006E64696E670042617474657279204C6FAD
:103B5200772121212053656C662D4C616E64696E5C
:103B62006720496E69746961746564004F62737499
:0E3B720061636C652070726573656E7400008F
:00000001FF
